{
  "contractName": "DutchAuction",
  "abi": [
    {
      "inputs": [
        {
          "internalType": "uint256",
          "name": "_startingPrice",
          "type": "uint256"
        },
        {
          "internalType": "uint256",
          "name": "_reservePrice",
          "type": "uint256"
        },
        {
          "internalType": "uint256",
          "name": "_biddingInterval",
          "type": "uint256"
        },
        {
          "internalType": "uint256",
          "name": "_auctionDuration",
          "type": "uint256"
        }
      ],
      "stateMutability": "nonpayable",
      "type": "constructor"
    },
    {
      "anonymous": false,
      "inputs": [
        {
          "indexed": true,
          "internalType": "address",
          "name": "winner",
          "type": "address"
        },
        {
          "indexed": false,
          "internalType": "uint256",
          "name": "amount",
          "type": "uint256"
        },
        {
          "indexed": false,
          "internalType": "uint256",
          "name": "auctionId",
          "type": "uint256"
        }
      ],
      "name": "AuctionEnded",
      "type": "event"
    },
    {
      "anonymous": false,
      "inputs": [
        {
          "indexed": true,
          "internalType": "address",
          "name": "bidder",
          "type": "address"
        },
        {
          "indexed": false,
          "internalType": "uint256",
          "name": "amount",
          "type": "uint256"
        },
        {
          "indexed": false,
          "internalType": "uint256",
          "name": "auctionId",
          "type": "uint256"
        }
      ],
      "name": "BidPlaced",
      "type": "event"
    },
    {
      "inputs": [],
      "name": "auctionEndTime",
      "outputs": [
        {
          "internalType": "uint256",
          "name": "",
          "type": "uint256"
        }
      ],
      "stateMutability": "view",
      "type": "function"
    },
    {
      "inputs": [],
      "name": "auctionEnded",
      "outputs": [
        {
          "internalType": "bool",
          "name": "",
          "type": "bool"
        }
      ],
      "stateMutability": "view",
      "type": "function"
    },
    {
      "inputs": [
        {
          "internalType": "uint256",
          "name": "",
          "type": "uint256"
        }
      ],
      "name": "auctions",
      "outputs": [
        {
          "internalType": "uint256",
          "name": "id",
          "type": "uint256"
        },
        {
          "internalType": "address",
          "name": "highestBidder",
          "type": "address"
        },
        {
          "internalType": "uint256",
          "name": "currentPrice",
          "type": "uint256"
        },
        {
          "internalType": "bool",
          "name": "ended",
          "type": "bool"
        }
      ],
      "stateMutability": "view",
      "type": "function"
    },
    {
      "inputs": [],
      "name": "biddingInterval",
      "outputs": [
        {
          "internalType": "uint256",
          "name": "",
          "type": "uint256"
        }
      ],
      "stateMutability": "view",
      "type": "function"
    },
    {
      "inputs": [],
      "name": "reservePrice",
      "outputs": [
        {
          "internalType": "uint256",
          "name": "",
          "type": "uint256"
        }
      ],
      "stateMutability": "view",
      "type": "function"
    },
    {
      "inputs": [],
      "name": "seller",
      "outputs": [
        {
          "internalType": "address",
          "name": "",
          "type": "address"
        }
      ],
      "stateMutability": "view",
      "type": "function"
    },
    {
      "inputs": [],
      "name": "startingPrice",
      "outputs": [
        {
          "internalType": "uint256",
          "name": "",
          "type": "uint256"
        }
      ],
      "stateMutability": "view",
      "type": "function"
    },
    {
      "inputs": [],
      "name": "getAllAuctions",
      "outputs": [
        {
          "components": [
            {
              "internalType": "uint256",
              "name": "id",
              "type": "uint256"
            },
            {
              "internalType": "address",
              "name": "highestBidder",
              "type": "address"
            },
            {
              "internalType": "uint256",
              "name": "currentPrice",
              "type": "uint256"
            },
            {
              "internalType": "bool",
              "name": "ended",
              "type": "bool"
            }
          ],
          "internalType": "struct DutchAuction.Auction[]",
          "name": "",
          "type": "tuple[]"
        }
      ],
      "stateMutability": "view",
      "type": "function"
    },
    {
      "inputs": [
        {
          "internalType": "uint256",
          "name": "auctionId",
          "type": "uint256"
        }
      ],
      "name": "placeBid",
      "outputs": [],
      "stateMutability": "payable",
      "type": "function"
    },
    {
      "inputs": [
        {
          "internalType": "uint256",
          "name": "auctionId",
          "type": "uint256"
        }
      ],
      "name": "endAuction",
      "outputs": [],
      "stateMutability": "nonpayable",
      "type": "function"
    }
  ],
  "bytecode": "0x60806040523480156200001157600080fd5b50604051620012ed380380620012ed8339818101604052810190620000379190620001ec565b336000806101000a81548173ffffffffffffffffffffffffffffffffffffffff021916908373ffffffffffffffffffffffffffffffffffffffff16021790555083600281905550826003819055508160048190555080426200009a91906200028d565b600581905550620000b0620000ba60201b60201c565b50505050620002ea565b6000600180549050905060016040518060800160405280838152602001600073ffffffffffffffffffffffffffffffffffffffff16815260200160025481526020016000151581525090806001815401808255809150506001900390600052602060002090600402016000909190919091506000820151816000015560208201518160010160006101000a81548173ffffffffffffffffffffffffffffffffffffffff021916908373ffffffffffffffffffffffffffffffffffffffff1602179055506040820151816002015560608201518160030160006101000a81548160ff021916908315150217905550505050565b600080fd5b6000819050919050565b620001c681620001b1565b8114620001d257600080fd5b50565b600081519050620001e681620001bb565b92915050565b60008060008060808587031215620002095762000208620001ac565b5b60006200021987828801620001d5565b94505060206200022c87828801620001d5565b93505060406200023f87828801620001d5565b92505060606200025287828801620001d5565b91505092959194509250565b7f4e487b7100000000000000000000000000000000000000000000000000000000600052601160045260246000fd5b60006200029a82620001b1565b9150620002a783620001b1565b9250827fffffffffffffffffffffffffffffffffffffffffffffffffffffffffffffffff03821115620002df57620002de6200025e565b5b828201905092915050565b610ff380620002fa6000396000f3fe6080604052600436106100915760003560e01c80639979ef45116100595780639979ef4514610182578063b9a2de3a1461019e578063cbd2bdfd146101c7578063d6fbf202146101f2578063db2e1eed1461021d57610091565b806308551a53146100965780634b449cba146100c1578063571a26a0146100ec5780636d88e2e91461012c5780638643337414610157575b600080fd5b3480156100a257600080fd5b506100ab610248565b6040516100b89190610a2b565b60405180910390f35b3480156100cd57600080fd5b506100d661026c565b6040516100e39190610a5f565b60405180910390f35b3480156100f857600080fd5b50610113600480360381019061010e9190610aab565b610272565b6040516101239493929190610af3565b60405180910390f35b34801561013857600080fd5b506101416102df565b60405161014e9190610a5f565b60405180910390f35b34801561016357600080fd5b5061016c6102e5565b6040516101799190610b38565b60405180910390f35b61019c60048036038101906101979190610aab565b6102f8565b005b3480156101aa57600080fd5b506101c560048036038101906101c09190610aab565b6104ef565b005b3480156101d357600080fd5b506101dc610808565b6040516101e99190610c84565b60405180910390f35b3480156101fe57600080fd5b506102076108ec565b6040516102149190610a5f565b60405180910390f35b34801561022957600080fd5b506102326108f2565b60405161023f9190610a5f565b60405180910390f35b60008054906101000a900473ffffffffffffffffffffffffffffffffffffffff1681565b60055481565b6001818154811061028257600080fd5b90600052602060002090600402016000915090508060000154908060010160009054906101000a900473ffffffffffffffffffffffffffffffffffffffff16908060020154908060030160009054906101000a900460ff16905084565b60045481565b600660009054906101000a900460ff1681565b600554421061033c576040517f08c379a000000000000000000000000000000000000000000000000000000000815260040161033390610d03565b60405180910390fd5b6001805490508110610383576040517f08c379a000000000000000000000000000000000000000000000000000000000815260040161037a90610d6f565b60405180910390fd5b60006001828154811061039957610398610d8f565b5b906000526020600020906004020190508060030160009054906101000a900460ff16156103fb576040517f08c379a00000000000000000000000000000000000000000000000000000000081526004016103f290610d03565b60405180910390fd5b8060020154341015610442576040517f08c379a000000000000000000000000000000000000000000000000000000000815260040161043990610e0a565b60405180910390fd5b80600201543411156104eb57348160020181905550338160010160006101000a81548173ffffffffffffffffffffffffffffffffffffffff021916908373ffffffffffffffffffffffffffffffffffffffff1602179055503373ffffffffffffffffffffffffffffffffffffffff167fdf8644c0a4c21ed214ce69f395675b3a5fcd1039083daea5058898de40ea314934846040516104e2929190610e2a565b60405180910390a25b5050565b60008054906101000a900473ffffffffffffffffffffffffffffffffffffffff1673ffffffffffffffffffffffffffffffffffffffff163373ffffffffffffffffffffffffffffffffffffffff161461057d576040517f08c379a000000000000000000000000000000000000000000000000000000000815260040161057490610ec5565b60405180910390fd5b6005544210156105c2576040517f08c379a00000000000000000000000000000000000000000000000000000000081526004016105b990610f31565b60405180910390fd5b6001805490508110610609576040517f08c379a000000000000000000000000000000000000000000000000000000000815260040161060090610d6f565b60405180910390fd5b60006001828154811061061f5761061e610d8f565b5b906000526020600020906004020190508060030160009054906101000a900460ff1615610681576040517f08c379a000000000000000000000000000000000000000000000000000000000815260040161067890610f9d565b60405180910390fd5b600073ffffffffffffffffffffffffffffffffffffffff168160010160009054906101000a900473ffffffffffffffffffffffffffffffffffffffff1673ffffffffffffffffffffffffffffffffffffffff16036106fb5760018160030160006101000a81548160ff021916908315150217905550610804565b60008054906101000a900473ffffffffffffffffffffffffffffffffffffffff1673ffffffffffffffffffffffffffffffffffffffff166108fc82600201549081150290604051600060405180830381858888f19350505050158015610765573d6000803e3d6000fd5b508060010160009054906101000a900473ffffffffffffffffffffffffffffffffffffffff1673ffffffffffffffffffffffffffffffffffffffff167fc358e8e3f205b5e7453abd5cbac388ca4552b887b69001bc972b88610c7490358260020154846040516107d6929190610e2a565b60405180910390a260018160030160006101000a81548160ff0219169083151502179055506108036108f8565b5b5050565b60606001805480602002602001604051908101604052809291908181526020016000905b828210156108e35783829060005260206000209060040201604051806080016040529081600082015481526020016001820160009054906101000a900473ffffffffffffffffffffffffffffffffffffffff1673ffffffffffffffffffffffffffffffffffffffff1673ffffffffffffffffffffffffffffffffffffffff168152602001600282015481526020016003820160009054906101000a900460ff1615151515815250508152602001906001019061082c565b50505050905090565b60025481565b60035481565b6000600180549050905060016040518060800160405280838152602001600073ffffffffffffffffffffffffffffffffffffffff16815260200160025481526020016000151581525090806001815401808255809150506001900390600052602060002090600402016000909190919091506000820151816000015560208201518160010160006101000a81548173ffffffffffffffffffffffffffffffffffffffff021916908373ffffffffffffffffffffffffffffffffffffffff1602179055506040820151816002015560608201518160030160006101000a81548160ff021916908315150217905550505050565b600073ffffffffffffffffffffffffffffffffffffffff82169050919050565b6000610a15826109ea565b9050919050565b610a2581610a0a565b82525050565b6000602082019050610a406000830184610a1c565b92915050565b6000819050919050565b610a5981610a46565b82525050565b6000602082019050610a746000830184610a50565b92915050565b600080fd5b610a8881610a46565b8114610a9357600080fd5b50565b600081359050610aa581610a7f565b92915050565b600060208284031215610ac157610ac0610a7a565b5b6000610acf84828501610a96565b91505092915050565b60008115159050919050565b610aed81610ad8565b82525050565b6000608082019050610b086000830187610a50565b610b156020830186610a1c565b610b226040830185610a50565b610b2f6060830184610ae4565b95945050505050565b6000602082019050610b4d6000830184610ae4565b92915050565b600081519050919050565b600082825260208201905092915050565b6000819050602082019050919050565b610b8881610a46565b82525050565b610b9781610a0a565b82525050565b610ba681610ad8565b82525050565b608082016000820151610bc26000850182610b7f565b506020820151610bd56020850182610b8e565b506040820151610be86040850182610b7f565b506060820151610bfb6060850182610b9d565b50505050565b6000610c0d8383610bac565b60808301905092915050565b6000602082019050919050565b6000610c3182610b53565b610c3b8185610b5e565b9350610c4683610b6f565b8060005b83811015610c77578151610c5e8882610c01565b9750610c6983610c19565b925050600181019050610c4a565b5085935050505092915050565b60006020820190508181036000830152610c9e8184610c26565b905092915050565b600082825260208201905092915050565b7f41756374696f6e2068617320616c726561647920656e64656400000000000000600082015250565b6000610ced601983610ca6565b9150610cf882610cb7565b602082019050919050565b60006020820190508181036000830152610d1c81610ce0565b9050919050565b7f496e76616c69642061756374696f6e2049440000000000000000000000000000600082015250565b6000610d59601283610ca6565b9150610d6482610d23565b602082019050919050565b60006020820190508181036000830152610d8881610d4c565b9050919050565b7f4e487b7100000000000000000000000000000000000000000000000000000000600052603260045260246000fd5b7f42696420616d6f756e7420697320746f6f206c6f770000000000000000000000600082015250565b6000610df4601583610ca6565b9150610dff82610dbe565b602082019050919050565b60006020820190508181036000830152610e2381610de7565b9050919050565b6000604082019050610e3f6000830185610a50565b610e4c6020830184610a50565b9392505050565b7f4f6e6c79207468652073656c6c65722063616e2063616c6c207468697320667560008201527f6e6374696f6e0000000000000000000000000000000000000000000000000000602082015250565b6000610eaf602683610ca6565b9150610eba82610e53565b604082019050919050565b60006020820190508181036000830152610ede81610ea2565b9050919050565b7f41756374696f6e206973207374696c6c206f6e676f696e670000000000000000600082015250565b6000610f1b601883610ca6565b9150610f2682610ee5565b602082019050919050565b60006020820190508181036000830152610f4a81610f0e565b9050919050565b7f41756374696f6e20616c726561647920656e6465640000000000000000000000600082015250565b6000610f87601583610ca6565b9150610f9282610f51565b602082019050919050565b60006020820190508181036000830152610fb681610f7a565b905091905056fea264697066735822122069fa4c6ef0d180ab711d620d8e34bf9a633896608700acd1dd3394cda4d79a9a64736f6c634300080d0033",
  "immutableReferences": {},
  "source": "// SPDX-License-Identifier: MIT\npragma solidity ^0.8.0;\n\ncontract DutchAuction {\n    address public seller;\n\n    // Array to store auction details\n    struct Auction {\n        uint256 id;\n        address highestBidder;\n        uint256 currentPrice;\n        bool ended;\n    }\n\n    Auction[] public auctions; // Array to store all auctions\n\n    uint256 public startingPrice;\n    uint256 public reservePrice;\n    uint256 public biddingInterval;\n    uint256 public auctionEndTime;\n\n    bool public auctionEnded;\n\n    event BidPlaced(address indexed bidder, uint256 amount, uint256 auctionId);\n    event AuctionEnded(address indexed winner, uint256 amount, uint256 auctionId);\n\n    modifier onlySeller() {\n        require(msg.sender == seller, \"Only the seller can call this function\");\n        _;\n    }\n\n    modifier onlyBeforeEnd() {\n        require(block.timestamp < auctionEndTime, \"Auction has already ended\");\n        _;\n    }\n\n    modifier onlyAfterEnd() {\n        require(block.timestamp >= auctionEndTime, \"Auction is still ongoing\");\n        _;\n    }\n\n    constructor(\n        uint256 _startingPrice,\n        uint256 _reservePrice,\n        uint256 _biddingInterval,\n        uint256 _auctionDuration\n    ) {\n        seller = msg.sender;\n        startingPrice = _startingPrice;\n        reservePrice = _reservePrice;\n        biddingInterval = _biddingInterval;\n        auctionEndTime = block.timestamp + _auctionDuration;\n\n        // Create an initial auction\n        createAuction();\n    }\n\n    function createAuction() internal {\n        uint256 auctionId = auctions.length;\n        auctions.push(Auction(auctionId, address(0), startingPrice, false));\n    }\n\n    function getAllAuctions() external view returns (Auction[] memory) {\n        return auctions;\n    }\n\n    function placeBid(uint256 auctionId) external payable onlyBeforeEnd {\n    require(auctionId < auctions.length, \"Invalid auction ID\");\n    Auction storage currentAuction = auctions[auctionId];\n    \n    require(!currentAuction.ended, \"Auction has already ended\");\n    require(msg.value >= currentAuction.currentPrice, \"Bid amount is too low\");\n\n    if (msg.value > currentAuction.currentPrice) {\n        currentAuction.currentPrice = msg.value;\n        currentAuction.highestBidder = msg.sender;\n        emit BidPlaced(msg.sender, msg.value, auctionId);\n    }\n}\n\n\n    function endAuction(uint256 auctionId) external onlySeller onlyAfterEnd {\n        require(auctionId < auctions.length, \"Invalid auction ID\");\n        Auction storage currentAuction = auctions[auctionId];\n\n        require(!currentAuction.ended, \"Auction already ended\");\n\n        if (currentAuction.highestBidder == address(0)) {\n            // No bids received, auction unsuccessful\n            currentAuction.ended = true;\n        } else {\n            // Transfer the item to the highest bidder\n            payable(seller).transfer(currentAuction.currentPrice);\n            emit AuctionEnded(currentAuction.highestBidder, currentAuction.currentPrice, auctionId);\n            currentAuction.ended = true;\n\n            // Create a new auction after ending the current one\n            createAuction();\n        }\n    }\n}\n",
  "sourcePath": "/home/mehdi/Documents/workspace/blockchain/dutch-auction-dapp/contracts/DutchAuction.sol",
  "compiler": {
    "name": "solc",
    "version": "0.8.13+commit.abaa5c0e.Emscripten.clang"
  },
  "schemaVersion": "3.4.16",
  "updatedAt": "2024-02-09T13:39:51.824Z",
  "devdoc": {
    "kind": "dev",
    "methods": {},
    "version": 1
  },
  "userdoc": {
    "kind": "user",
    "methods": {},
    "version": 1
  }
}