{
  "contractName": "DutchAuction",
  "abi": [
    {
      "inputs": [
        {
          "internalType": "uint256",
          "name": "_startingPrice",
          "type": "uint256"
        },
        {
          "internalType": "uint256",
          "name": "_reservePrice",
          "type": "uint256"
        },
        {
          "internalType": "uint256",
          "name": "_biddingInterval",
          "type": "uint256"
        },
        {
          "internalType": "uint256",
          "name": "_auctionDuration",
          "type": "uint256"
        }
      ],
      "stateMutability": "nonpayable",
      "type": "constructor"
    },
    {
      "anonymous": false,
      "inputs": [
        {
          "indexed": true,
          "internalType": "address",
          "name": "winner",
          "type": "address"
        },
        {
          "indexed": false,
          "internalType": "uint256",
          "name": "amount",
          "type": "uint256"
        },
        {
          "indexed": false,
          "internalType": "uint256",
          "name": "auctionId",
          "type": "uint256"
        }
      ],
      "name": "AuctionEnded",
      "type": "event"
    },
    {
      "anonymous": false,
      "inputs": [
        {
          "indexed": true,
          "internalType": "address",
          "name": "bidder",
          "type": "address"
        },
        {
          "indexed": false,
          "internalType": "uint256",
          "name": "amount",
          "type": "uint256"
        },
        {
          "indexed": false,
          "internalType": "uint256",
          "name": "auctionId",
          "type": "uint256"
        }
      ],
      "name": "BidPlaced",
      "type": "event"
    },
    {
      "inputs": [],
      "name": "auctionEndTime",
      "outputs": [
        {
          "internalType": "uint256",
          "name": "",
          "type": "uint256"
        }
      ],
      "stateMutability": "view",
      "type": "function",
      "constant": true
    },
    {
      "inputs": [],
      "name": "auctionEnded",
      "outputs": [
        {
          "internalType": "bool",
          "name": "",
          "type": "bool"
        }
      ],
      "stateMutability": "view",
      "type": "function",
      "constant": true
    },
    {
      "inputs": [
        {
          "internalType": "uint256",
          "name": "",
          "type": "uint256"
        }
      ],
      "name": "auctions",
      "outputs": [
        {
          "internalType": "uint256",
          "name": "id",
          "type": "uint256"
        },
        {
          "internalType": "address",
          "name": "highestBidder",
          "type": "address"
        },
        {
          "internalType": "uint256",
          "name": "currentPrice",
          "type": "uint256"
        },
        {
          "internalType": "uint256",
          "name": "startingPrice",
          "type": "uint256"
        },
        {
          "internalType": "bool",
          "name": "ended",
          "type": "bool"
        }
      ],
      "stateMutability": "view",
      "type": "function",
      "constant": true
    },
    {
      "inputs": [],
      "name": "biddingInterval",
      "outputs": [
        {
          "internalType": "uint256",
          "name": "",
          "type": "uint256"
        }
      ],
      "stateMutability": "view",
      "type": "function",
      "constant": true
    },
    {
      "inputs": [],
      "name": "reservePrice",
      "outputs": [
        {
          "internalType": "uint256",
          "name": "",
          "type": "uint256"
        }
      ],
      "stateMutability": "view",
      "type": "function",
      "constant": true
    },
    {
      "inputs": [],
      "name": "seller",
      "outputs": [
        {
          "internalType": "address",
          "name": "",
          "type": "address"
        }
      ],
      "stateMutability": "view",
      "type": "function",
      "constant": true
    },
    {
      "inputs": [],
      "name": "getAllAuctions",
      "outputs": [
        {
          "components": [
            {
              "internalType": "uint256",
              "name": "id",
              "type": "uint256"
            },
            {
              "internalType": "address",
              "name": "highestBidder",
              "type": "address"
            },
            {
              "internalType": "uint256",
              "name": "currentPrice",
              "type": "uint256"
            },
            {
              "internalType": "uint256",
              "name": "startingPrice",
              "type": "uint256"
            },
            {
              "internalType": "bool",
              "name": "ended",
              "type": "bool"
            }
          ],
          "internalType": "struct DutchAuction.Auction[]",
          "name": "",
          "type": "tuple[]"
        }
      ],
      "stateMutability": "view",
      "type": "function",
      "constant": true
    },
    {
      "inputs": [
        {
          "internalType": "uint256",
          "name": "auctionId",
          "type": "uint256"
        }
      ],
      "name": "placeBid",
      "outputs": [],
      "stateMutability": "payable",
      "type": "function",
      "payable": true
    },
    {
      "inputs": [
        {
          "internalType": "uint256",
          "name": "auctionId",
          "type": "uint256"
        }
      ],
      "name": "endAuction",
      "outputs": [],
      "stateMutability": "nonpayable",
      "type": "function"
    }
  ],
  "bytecode": "0x60806040523480156200001157600080fd5b50604051620012ae380380620012ae8339818101604052810190620000379190620001f5565b336000806101000a81548173ffffffffffffffffffffffffffffffffffffffff021916908373ffffffffffffffffffffffffffffffffffffffff1602179055508260028190555081600381905550804262000093919062000296565b600481905550620000aa84620000b460201b60201c565b50505050620002f3565b6000600180549050905060016040518060a00160405280838152602001600073ffffffffffffffffffffffffffffffffffffffff1681526020018481526020018481526020016000151581525090806001815401808255809150506001900390600052602060002090600502016000909190919091506000820151816000015560208201518160010160006101000a81548173ffffffffffffffffffffffffffffffffffffffff021916908373ffffffffffffffffffffffffffffffffffffffff160217905550604082015181600201556060820151816003015560808201518160040160006101000a81548160ff02191690831515021790555050505050565b600080fd5b6000819050919050565b620001cf81620001ba565b8114620001db57600080fd5b50565b600081519050620001ef81620001c4565b92915050565b60008060008060808587031215620002125762000211620001b5565b5b60006200022287828801620001de565b94505060206200023587828801620001de565b93505060406200024887828801620001de565b92505060606200025b87828801620001de565b91505092959194509250565b7f4e487b7100000000000000000000000000000000000000000000000000000000600052601160045260246000fd5b6000620002a382620001ba565b9150620002b083620001ba565b9250827fffffffffffffffffffffffffffffffffffffffffffffffffffffffffffffffff03821115620002e857620002e762000267565b5b828201905092915050565b610fab80620003036000396000f3fe6080604052600436106100865760003560e01c80638643337411610059578063864333741461014d5780639979ef4514610178578063b9a2de3a14610194578063cbd2bdfd146101bd578063db2e1eed146101e857610086565b806308551a531461008b5780634b449cba146100b6578063571a26a0146100e15780636d88e2e914610122575b600080fd5b34801561009757600080fd5b506100a0610213565b6040516100ad91906109c2565b60405180910390f35b3480156100c257600080fd5b506100cb610237565b6040516100d891906109f6565b60405180910390f35b3480156100ed57600080fd5b5061010860048036038101906101039190610a42565b61023d565b604051610119959493929190610a8a565b60405180910390f35b34801561012e57600080fd5b506101376102b0565b60405161014491906109f6565b60405180910390f35b34801561015957600080fd5b506101626102b6565b60405161016f9190610add565b60405180910390f35b610192600480360381019061018d9190610a42565b6102c9565b005b3480156101a057600080fd5b506101bb60048036038101906101b69190610a42565b61046e565b005b3480156101c957600080fd5b506101d261078c565b6040516101df9190610c3c565b60405180910390f35b3480156101f457600080fd5b506101fd61087a565b60405161020a91906109f6565b60405180910390f35b60008054906101000a900473ffffffffffffffffffffffffffffffffffffffff1681565b60045481565b6001818154811061024d57600080fd5b90600052602060002090600502016000915090508060000154908060010160009054906101000a900473ffffffffffffffffffffffffffffffffffffffff16908060020154908060030154908060040160009054906101000a900460ff16905085565b60035481565b600560009054906101000a900460ff1681565b600454421061030d576040517f08c379a000000000000000000000000000000000000000000000000000000000815260040161030490610cbb565b60405180910390fd5b6001805490508110610354576040517f08c379a000000000000000000000000000000000000000000000000000000000815260040161034b90610d27565b60405180910390fd5b60006001828154811061036a57610369610d47565b5b9060005260206000209060050201905080600201543410156103c1576040517f08c379a00000000000000000000000000000000000000000000000000000000081526004016103b890610dc2565b60405180910390fd5b806002015434111561046a57348160020181905550338160010160006101000a81548173ffffffffffffffffffffffffffffffffffffffff021916908373ffffffffffffffffffffffffffffffffffffffff1602179055503373ffffffffffffffffffffffffffffffffffffffff167fdf8644c0a4c21ed214ce69f395675b3a5fcd1039083daea5058898de40ea31493484604051610461929190610de2565b60405180910390a25b5050565b60008054906101000a900473ffffffffffffffffffffffffffffffffffffffff1673ffffffffffffffffffffffffffffffffffffffff163373ffffffffffffffffffffffffffffffffffffffff16146104fc576040517f08c379a00000000000000000000000000000000000000000000000000000000081526004016104f390610e7d565b60405180910390fd5b600454421015610541576040517f08c379a000000000000000000000000000000000000000000000000000000000815260040161053890610ee9565b60405180910390fd5b6001805490508110610588576040517f08c379a000000000000000000000000000000000000000000000000000000000815260040161057f90610d27565b60405180910390fd5b60006001828154811061059e5761059d610d47565b5b906000526020600020906005020190508060040160009054906101000a900460ff1615610600576040517f08c379a00000000000000000000000000000000000000000000000000000000081526004016105f790610f55565b60405180910390fd5b600073ffffffffffffffffffffffffffffffffffffffff168160010160009054906101000a900473ffffffffffffffffffffffffffffffffffffffff1673ffffffffffffffffffffffffffffffffffffffff160361067a5760018160040160006101000a81548160ff021916908315150217905550610788565b60008054906101000a900473ffffffffffffffffffffffffffffffffffffffff1673ffffffffffffffffffffffffffffffffffffffff166108fc82600201549081150290604051600060405180830381858888f193505050501580156106e4573d6000803e3d6000fd5b508060010160009054906101000a900473ffffffffffffffffffffffffffffffffffffffff1673ffffffffffffffffffffffffffffffffffffffff167fc358e8e3f205b5e7453abd5cbac388ca4552b887b69001bc972b88610c749035826002015484604051610755929190610de2565b60405180910390a260018160040160006101000a81548160ff0219169083151502179055506107878160030154610880565b5b5050565b60606001805480602002602001604051908101604052809291908181526020016000905b8282101561087157838290600052602060002090600502016040518060a0016040529081600082015481526020016001820160009054906101000a900473ffffffffffffffffffffffffffffffffffffffff1673ffffffffffffffffffffffffffffffffffffffff1673ffffffffffffffffffffffffffffffffffffffff16815260200160028201548152602001600382015481526020016004820160009054906101000a900460ff161515151581525050815260200190600101906107b0565b50505050905090565b60025481565b6000600180549050905060016040518060a00160405280838152602001600073ffffffffffffffffffffffffffffffffffffffff1681526020018481526020018481526020016000151581525090806001815401808255809150506001900390600052602060002090600502016000909190919091506000820151816000015560208201518160010160006101000a81548173ffffffffffffffffffffffffffffffffffffffff021916908373ffffffffffffffffffffffffffffffffffffffff160217905550604082015181600201556060820151816003015560808201518160040160006101000a81548160ff02191690831515021790555050505050565b600073ffffffffffffffffffffffffffffffffffffffff82169050919050565b60006109ac82610981565b9050919050565b6109bc816109a1565b82525050565b60006020820190506109d760008301846109b3565b92915050565b6000819050919050565b6109f0816109dd565b82525050565b6000602082019050610a0b60008301846109e7565b92915050565b600080fd5b610a1f816109dd565b8114610a2a57600080fd5b50565b600081359050610a3c81610a16565b92915050565b600060208284031215610a5857610a57610a11565b5b6000610a6684828501610a2d565b91505092915050565b60008115159050919050565b610a8481610a6f565b82525050565b600060a082019050610a9f60008301886109e7565b610aac60208301876109b3565b610ab960408301866109e7565b610ac660608301856109e7565b610ad36080830184610a7b565b9695505050505050565b6000602082019050610af26000830184610a7b565b92915050565b600081519050919050565b600082825260208201905092915050565b6000819050602082019050919050565b610b2d816109dd565b82525050565b610b3c816109a1565b82525050565b610b4b81610a6f565b82525050565b60a082016000820151610b676000850182610b24565b506020820151610b7a6020850182610b33565b506040820151610b8d6040850182610b24565b506060820151610ba06060850182610b24565b506080820151610bb36080850182610b42565b50505050565b6000610bc58383610b51565b60a08301905092915050565b6000602082019050919050565b6000610be982610af8565b610bf38185610b03565b9350610bfe83610b14565b8060005b83811015610c2f578151610c168882610bb9565b9750610c2183610bd1565b925050600181019050610c02565b5085935050505092915050565b60006020820190508181036000830152610c568184610bde565b905092915050565b600082825260208201905092915050565b7f41756374696f6e2068617320616c726561647920656e64656400000000000000600082015250565b6000610ca5601983610c5e565b9150610cb082610c6f565b602082019050919050565b60006020820190508181036000830152610cd481610c98565b9050919050565b7f496e76616c69642061756374696f6e2049440000000000000000000000000000600082015250565b6000610d11601283610c5e565b9150610d1c82610cdb565b602082019050919050565b60006020820190508181036000830152610d4081610d04565b9050919050565b7f4e487b7100000000000000000000000000000000000000000000000000000000600052603260045260246000fd5b7f42696420616d6f756e7420697320746f6f206c6f770000000000000000000000600082015250565b6000610dac601583610c5e565b9150610db782610d76565b602082019050919050565b60006020820190508181036000830152610ddb81610d9f565b9050919050565b6000604082019050610df760008301856109e7565b610e0460208301846109e7565b9392505050565b7f4f6e6c79207468652073656c6c65722063616e2063616c6c207468697320667560008201527f6e6374696f6e0000000000000000000000000000000000000000000000000000602082015250565b6000610e67602683610c5e565b9150610e7282610e0b565b604082019050919050565b60006020820190508181036000830152610e9681610e5a565b9050919050565b7f41756374696f6e206973207374696c6c206f6e676f696e670000000000000000600082015250565b6000610ed3601883610c5e565b9150610ede82610e9d565b602082019050919050565b60006020820190508181036000830152610f0281610ec6565b9050919050565b7f41756374696f6e20616c726561647920656e6465640000000000000000000000600082015250565b6000610f3f601583610c5e565b9150610f4a82610f09565b602082019050919050565b60006020820190508181036000830152610f6e81610f32565b905091905056fea264697066735822122054905e6e69b3ed1f1a93beda5932e4b9abd193ff82ef5344bb02739bb6f632b764736f6c634300080d0033",
  "immutableReferences": {},
  "source": "pragma solidity ^0.8.0;\n\ncontract DutchAuction {\n    address public seller;\n\n    // Array to store auction details\n    struct Auction {\n        uint256 id;\n        address highestBidder;\n        uint256 currentPrice;\n        uint256 startingPrice; \n        bool ended;\n    }\n\n    Auction[] public auctions; \n\n    uint256 public reservePrice;\n    uint256 public biddingInterval;\n    uint256 public auctionEndTime;\n\n    bool public auctionEnded;\n\n    event BidPlaced(address indexed bidder, uint256 amount, uint256 auctionId);\n    event AuctionEnded(address indexed winner, uint256 amount, uint256 auctionId);\n\n    modifier onlySeller() {\n        require(msg.sender == seller, \"Only the seller can call this function\");\n        _;\n    }\n\n    modifier onlyBeforeEnd() {\n        require(block.timestamp < auctionEndTime, \"Auction has already ended\");\n        _;\n    }\n\n    modifier onlyAfterEnd() {\n        require(block.timestamp >= auctionEndTime, \"Auction is still ongoing\");\n        _;\n    }\n\n    constructor(\n        uint256 _startingPrice,\n        uint256 _reservePrice,\n        uint256 _biddingInterval,\n        uint256 _auctionDuration\n    ) {\n        seller = msg.sender;\n        reservePrice = _reservePrice;\n        biddingInterval = _biddingInterval;\n        auctionEndTime = block.timestamp + _auctionDuration;\n\n        createAuction(_startingPrice);\n    }\n\n    function createAuction(uint256 _startingPrice) internal {\n        uint256 auctionId = auctions.length;\n        auctions.push(Auction(auctionId, address(0), _startingPrice, _startingPrice, false));\n    }\n\n    function getAllAuctions() external view returns (Auction[] memory) {\n        return auctions;\n    }\n\n    function placeBid(uint256 auctionId) external payable onlyBeforeEnd {\n        require(auctionId < auctions.length, \"Invalid auction ID\");\n        Auction storage currentAuction = auctions[auctionId];\n        \n        require(msg.value >= currentAuction.currentPrice, \"Bid amount is too low\");\n\n        if (msg.value > currentAuction.currentPrice) {\n            currentAuction.currentPrice = msg.value;\n            currentAuction.highestBidder = msg.sender;\n            emit BidPlaced(msg.sender, msg.value, auctionId);\n        }\n    }\n\n    function endAuction(uint256 auctionId) external onlySeller onlyAfterEnd {\n        require(auctionId < auctions.length, \"Invalid auction ID\");\n        Auction storage currentAuction = auctions[auctionId];\n\n        require(!currentAuction.ended, \"Auction already ended\");\n\n        if (currentAuction.highestBidder == address(0)) {\n            currentAuction.ended = true;\n        } else {\n            payable(seller).transfer(currentAuction.currentPrice);\n            emit AuctionEnded(currentAuction.highestBidder, currentAuction.currentPrice, auctionId);\n            currentAuction.ended = true;\n\n            createAuction(currentAuction.startingPrice);\n        }\n    }\n}\n",
  "sourcePath": "/home/mehdi/Documents/workspace/blockchain/dutch-auction-dapp/contracts/DutchAuction.sol",
  "compiler": {
    "name": "solc",
    "version": "0.8.13+commit.abaa5c0e.Emscripten.clang"
  },
  "schemaVersion": "3.4.16",
  "updatedAt": "2024-02-09T20:11:54.841Z",
  "networkType": "ethereum",
  "devdoc": {
    "kind": "dev",
    "methods": {},
    "version": 1
  },
  "userdoc": {
    "kind": "user",
    "methods": {},
    "version": 1
  }
}