{
  "contractName": "DutchAuction",
  "abi": [
    {
      "inputs": [
        {
          "internalType": "uint256",
          "name": "_startingPrice",
          "type": "uint256"
        },
        {
          "internalType": "uint256",
          "name": "_reservePrice",
          "type": "uint256"
        },
        {
          "internalType": "uint256",
          "name": "_biddingInterval",
          "type": "uint256"
        },
        {
          "internalType": "uint256",
          "name": "_auctionDuration",
          "type": "uint256"
        }
      ],
      "stateMutability": "nonpayable",
      "type": "constructor"
    },
    {
      "anonymous": false,
      "inputs": [
        {
          "indexed": false,
          "internalType": "address",
          "name": "winner",
          "type": "address"
        },
        {
          "indexed": false,
          "internalType": "uint256",
          "name": "amount",
          "type": "uint256"
        }
      ],
      "name": "AuctionEnded",
      "type": "event"
    },
    {
      "anonymous": false,
      "inputs": [
        {
          "indexed": false,
          "internalType": "address",
          "name": "bidder",
          "type": "address"
        },
        {
          "indexed": false,
          "internalType": "uint256",
          "name": "amount",
          "type": "uint256"
        }
      ],
      "name": "BidPlaced",
      "type": "event"
    },
    {
      "inputs": [],
      "name": "auctionEndTime",
      "outputs": [
        {
          "internalType": "uint256",
          "name": "",
          "type": "uint256"
        }
      ],
      "stateMutability": "view",
      "type": "function",
      "constant": true
    },
    {
      "inputs": [],
      "name": "auctionEnded",
      "outputs": [
        {
          "internalType": "bool",
          "name": "",
          "type": "bool"
        }
      ],
      "stateMutability": "view",
      "type": "function",
      "constant": true
    },
    {
      "inputs": [],
      "name": "biddingInterval",
      "outputs": [
        {
          "internalType": "uint256",
          "name": "",
          "type": "uint256"
        }
      ],
      "stateMutability": "view",
      "type": "function",
      "constant": true
    },
    {
      "inputs": [],
      "name": "currentPrice",
      "outputs": [
        {
          "internalType": "uint256",
          "name": "",
          "type": "uint256"
        }
      ],
      "stateMutability": "view",
      "type": "function",
      "constant": true
    },
    {
      "inputs": [],
      "name": "highestBidder",
      "outputs": [
        {
          "internalType": "address",
          "name": "",
          "type": "address"
        }
      ],
      "stateMutability": "view",
      "type": "function",
      "constant": true
    },
    {
      "inputs": [],
      "name": "reservePrice",
      "outputs": [
        {
          "internalType": "uint256",
          "name": "",
          "type": "uint256"
        }
      ],
      "stateMutability": "view",
      "type": "function",
      "constant": true
    },
    {
      "inputs": [],
      "name": "seller",
      "outputs": [
        {
          "internalType": "address",
          "name": "",
          "type": "address"
        }
      ],
      "stateMutability": "view",
      "type": "function",
      "constant": true
    },
    {
      "inputs": [],
      "name": "startingPrice",
      "outputs": [
        {
          "internalType": "uint256",
          "name": "",
          "type": "uint256"
        }
      ],
      "stateMutability": "view",
      "type": "function",
      "constant": true
    },
    {
      "inputs": [],
      "name": "placeBid",
      "outputs": [],
      "stateMutability": "payable",
      "type": "function",
      "payable": true
    },
    {
      "inputs": [],
      "name": "endAuction",
      "outputs": [],
      "stateMutability": "nonpayable",
      "type": "function"
    }
  ],
  "bytecode": "0x60806040523480156200001157600080fd5b5060405162000b9538038062000b958339818101604052810190620000379190620000f1565b336000806101000a81548173ffffffffffffffffffffffffffffffffffffffff021916908373ffffffffffffffffffffffffffffffffffffffff160217905550836002819055508260038190555083600481905550816005819055508042620000a1919062000192565b60068190555050505050620001ef565b600080fd5b6000819050919050565b620000cb81620000b6565b8114620000d757600080fd5b50565b600081519050620000eb81620000c0565b92915050565b600080600080608085870312156200010e576200010d620000b1565b5b60006200011e87828801620000da565b94505060206200013187828801620000da565b93505060406200014487828801620000da565b92505060606200015787828801620000da565b91505092959194509250565b7f4e487b7100000000000000000000000000000000000000000000000000000000600052601160045260246000fd5b60006200019f82620000b6565b9150620001ac83620000b6565b9250827fffffffffffffffffffffffffffffffffffffffffffffffffffffffffffffffff03821115620001e457620001e362000163565b5b828201905092915050565b61099680620001ff6000396000f3fe6080604052600436106100915760003560e01c80639d1b464a116100595780639d1b464a1461016d578063d6fbf20214610198578063db2e1eed146101c3578063ecfc7ecc146101ee578063fe67a54b146101f857610091565b806308551a53146100965780634b449cba146100c15780636d88e2e9146100ec578063864333741461011757806391f9015714610142575b600080fd5b3480156100a257600080fd5b506100ab61020f565b6040516100b8919061065f565b60405180910390f35b3480156100cd57600080fd5b506100d6610233565b6040516100e39190610693565b60405180910390f35b3480156100f857600080fd5b50610101610239565b60405161010e9190610693565b60405180910390f35b34801561012357600080fd5b5061012c61023f565b60405161013991906106c9565b60405180910390f35b34801561014e57600080fd5b50610157610252565b604051610164919061065f565b60405180910390f35b34801561017957600080fd5b50610182610278565b60405161018f9190610693565b60405180910390f35b3480156101a457600080fd5b506101ad61027e565b6040516101ba9190610693565b60405180910390f35b3480156101cf57600080fd5b506101d8610284565b6040516101e59190610693565b60405180910390f35b6101f661028a565b005b34801561020457600080fd5b5061020d6103a1565b005b60008054906101000a900473ffffffffffffffffffffffffffffffffffffffff1681565b60065481565b60055481565b600760009054906101000a900460ff1681565b600160009054906101000a900473ffffffffffffffffffffffffffffffffffffffff1681565b60045481565b60025481565b60035481565b60065442106102ce576040517f08c379a00000000000000000000000000000000000000000000000000000000081526004016102c590610741565b60405180910390fd5b600454341015610313576040517f08c379a000000000000000000000000000000000000000000000000000000000815260040161030a906107ad565b60405180910390fd5b60045434111561039f573460048190555033600160006101000a81548173ffffffffffffffffffffffffffffffffffffffff021916908373ffffffffffffffffffffffffffffffffffffffff1602179055507f3fabff0a9c3ecd6814702e247fa9733e5d0aa69e3a38590f92cb18f623a2254d33346040516103969291906107cd565b60405180910390a15b565b60008054906101000a900473ffffffffffffffffffffffffffffffffffffffff1673ffffffffffffffffffffffffffffffffffffffff163373ffffffffffffffffffffffffffffffffffffffff161461042f576040517f08c379a000000000000000000000000000000000000000000000000000000000815260040161042690610868565b60405180910390fd5b600654421015610474576040517f08c379a000000000000000000000000000000000000000000000000000000000815260040161046b906108d4565b60405180910390fd5b600760009054906101000a900460ff16156104c4576040517f08c379a00000000000000000000000000000000000000000000000000000000081526004016104bb90610940565b60405180910390fd5b600073ffffffffffffffffffffffffffffffffffffffff16600160009054906101000a900473ffffffffffffffffffffffffffffffffffffffff1673ffffffffffffffffffffffffffffffffffffffff160361053a576001600760006101000a81548160ff02191690831515021790555061061c565b60008054906101000a900473ffffffffffffffffffffffffffffffffffffffff1673ffffffffffffffffffffffffffffffffffffffff166108fc6004549081150290604051600060405180830381858888f193505050501580156105a2573d6000803e3d6000fd5b507fdaec4582d5d9595688c8c98545fdd1c696d41c6aeaeb636737e84ed2f5c00eda600160009054906101000a900473ffffffffffffffffffffffffffffffffffffffff166004546040516105f89291906107cd565b60405180910390a16001600760006101000a81548160ff0219169083151502179055505b565b600073ffffffffffffffffffffffffffffffffffffffff82169050919050565b60006106498261061e565b9050919050565b6106598161063e565b82525050565b60006020820190506106746000830184610650565b92915050565b6000819050919050565b61068d8161067a565b82525050565b60006020820190506106a86000830184610684565b92915050565b60008115159050919050565b6106c3816106ae565b82525050565b60006020820190506106de60008301846106ba565b92915050565b600082825260208201905092915050565b7f41756374696f6e2068617320616c726561647920656e64656400000000000000600082015250565b600061072b6019836106e4565b9150610736826106f5565b602082019050919050565b6000602082019050818103600083015261075a8161071e565b9050919050565b7f42696420616d6f756e7420697320746f6f206c6f770000000000000000000000600082015250565b60006107976015836106e4565b91506107a282610761565b602082019050919050565b600060208201905081810360008301526107c68161078a565b9050919050565b60006040820190506107e26000830185610650565b6107ef6020830184610684565b9392505050565b7f4f6e6c79207468652073656c6c65722063616e2063616c6c207468697320667560008201527f6e6374696f6e0000000000000000000000000000000000000000000000000000602082015250565b60006108526026836106e4565b915061085d826107f6565b604082019050919050565b6000602082019050818103600083015261088181610845565b9050919050565b7f41756374696f6e206973207374696c6c206f6e676f696e670000000000000000600082015250565b60006108be6018836106e4565b91506108c982610888565b602082019050919050565b600060208201905081810360008301526108ed816108b1565b9050919050565b7f41756374696f6e20616c726561647920656e6465640000000000000000000000600082015250565b600061092a6015836106e4565b9150610935826108f4565b602082019050919050565b600060208201905081810360008301526109598161091d565b905091905056fea264697066735822122092f157bbfd1a69b17eef3ffb278222cbef46165ed84b3beca66bde62cbf1f4bf64736f6c634300080d0033",
  "immutableReferences": {},
  "source": "// SPDX-License-Identifier: MIT\npragma solidity ^0.8.0;\n\ncontract DutchAuction {\n    address public seller;\n    address public highestBidder;\n    uint256 public startingPrice;\n    uint256 public reservePrice;\n    uint256 public currentPrice;\n    uint256 public biddingInterval;\n    uint256 public auctionEndTime;\n\n    bool public auctionEnded;\n\n    event BidPlaced(address bidder, uint256 amount);\n    event AuctionEnded(address winner, uint256 amount);\n\n    modifier onlySeller() {\n        require(msg.sender == seller, \"Only the seller can call this function\");\n        _;\n    }\n\n    modifier onlyBeforeEnd() {\n        require(block.timestamp < auctionEndTime, \"Auction has already ended\");\n        _;\n    }\n\n    modifier onlyAfterEnd() {\n        require(block.timestamp >= auctionEndTime, \"Auction is still ongoing\");\n        _;\n    }\n\n    constructor(\n        uint256 _startingPrice,\n        uint256 _reservePrice,\n        uint256 _biddingInterval,\n        uint256 _auctionDuration\n    ) {\n        seller = msg.sender;\n        startingPrice = _startingPrice;\n        reservePrice = _reservePrice;\n        currentPrice = _startingPrice;\n        biddingInterval = _biddingInterval;\n        auctionEndTime = block.timestamp + _auctionDuration;\n    }\n\n    function placeBid() external payable onlyBeforeEnd {\n        require(msg.value >= currentPrice, \"Bid amount is too low\");\n\n        if (msg.value > currentPrice) {\n            currentPrice = msg.value;\n            highestBidder = msg.sender;\n            emit BidPlaced(msg.sender, msg.value);\n        }\n    }\n\n    function endAuction() external onlySeller onlyAfterEnd {\n        require(!auctionEnded, \"Auction already ended\");\n        \n        if (highestBidder == address(0)) {\n            // No bids received, auction unsuccessful\n            auctionEnded = true;\n        } else {\n            // Transfer the item to the highest bidder\n            payable(seller).transfer(currentPrice);\n            emit AuctionEnded(highestBidder, currentPrice);\n            auctionEnded = true;\n        }\n    }\n}\n",
  "sourcePath": "/home/mehdi/Documents/workspace/blockchain/dutch-auction/contracts/DutchAuction.sol",
  "compiler": {
    "name": "solc",
    "version": "0.8.13+commit.abaa5c0e.Emscripten.clang"
  },
  "schemaVersion": "3.4.16",
  "updatedAt": "2024-01-11T14:37:59.255Z",
  "networkType": "ethereum",
  "devdoc": {
    "kind": "dev",
    "methods": {},
    "version": 1
  },
  "userdoc": {
    "kind": "user",
    "methods": {},
    "version": 1
  }
}